:100000000C942A000C943F000C943F000C943F0089
:100010000C943F000C943F000C943F000C943F0064
:100020000C943F000C943F000C943F000C943F0054
:100030000C943F000C943F000C943F000C943F0044
:100040000C943F000C943F000C943F000C943F0034
:100050000C943F0011241FBECFE5D4E0DEBFCDBF1E
:1000600010E0A0E6B0E0E0EBF1E002C005900D92F8
:10007000AE36B107D9F70E94CF000C94D6000C948D
:100080000000969888230CF4969A959886FD959A88
:10009000949885FD949A939884FD939A929A00007F
:1000A000929800000895CF93C82F919A92980E9439
:1000B00041008C2F8295807F0E944100CF9108954E
:1000C000CF93DF93EC018881882351F021960E9421
:1000D000530080E18A95F1F700C089918111F7CF33
:1000E000DF91CF910895CF93C82F919892980E9455
:1000F00041008C2F8295807F0E944100CF9108950E
:1001000081B38E6781BB87EA91E60197F1F700C062
:1001100000009198929880E30E9441008FEC97E054
:100120000197F1F700C0000080E30E94410092E4D3
:100130009A95F1F700C080E30E94410082E48A951D
:10014000F1F700C088E20E94410090E19A95F1F732
:1001500000C088E20E94730080E18A95F1F700C038
:1001600088E00E94730090E19A95F1F700C081E069
:100170000E9473008DEE92E00197F1F700C000003D
:1001800086E00E9473009DE09A95F1F700008CE0F4
:100190000E94730080E18A95F1F700C008950E94E3
:1001A000800080E690E00E946000FFCFF894FFCFCF
:0E01B0006A75646765206D652066726565007E
:00000001FF
