:100000000C942A000C943F000C943F000C943F0089
:100010000C943F000C943F000C943F000C943F0064
:100020000C943F000C943F000C943F000C943F0054
:100030000C943F000C943F000C943F000C943F0044
:100040000C943F000C943F000C943F000C943F0034
:100050000C943F0011241FBECFE5D4E0DEBFCDBF1E
:1000600010E0A0E6B0E0E8EEF1E002C005900D92ED
:10007000A636B107D9F70E94E8000C94F2000C9460
:100080000000969888230CF4969A959886FD959A88
:10009000949885FD949A939884FD939A929A00007F
:1000A000929800000895CF93C82F919A92980E9439
:1000B00041008C2F8295807F0E944100CF9108954E
:1000C0000F931F93CF93DF9300D0CDB7DEB78C0192
:1000D0001A821982E981FA81E80FF91F8081882349
:1000E000B9F0E981FA81E00FF11F80810E9453008D
:1000F00089819A8101969A83898380E18A95F1F7B3
:1001000000C0E981FA81E00FF11F80818111E9CF00
:100110000F900F90DF91CF911F910F910895CF9382
:10012000C82F919892980E9441008C2F8295807FD1
:100130000E944100CF91089587EA91E60197F1F777
:1001400000C000009198929880E30E9441008FECDB
:1001500097E00197F1F700C0000080E30E944100A2
:1001600092E49A95F1F700C080E30E94410082E496
:100170008A95F1F700C088E20E94410090E19A95CB
:10018000F1F700C088E20E948F0080E18A95F1F7C4
:1001900000C088E00E948F0090E19A95F1F700C0BE
:1001A00081E00E948F008DEE92E00197F1F700C090
:1001B000000086E00E948F009DE09A95F1F7000014
:1001C0008CE00E948F0080E18A95F1F700C00895CD
:1001D00081B38E6781BB0E949C0080E690E00E9404
:0801E0006000FFCFF894FFCF8F
:0601E80071617A7A6100EA
:00000001FF
